{
  "contractName": "Fish",
  "abi": [
    {
      "constant": true,
      "inputs": [
        {
          "name": "",
          "type": "uint256"
        }
      ],
      "name": "players",
      "outputs": [
        {
          "name": "",
          "type": "address"
        }
      ],
      "payable": false,
      "stateMutability": "view",
      "type": "function",
      "signature": "0xf71d96cb"
    },
    {
      "inputs": [],
      "payable": false,
      "stateMutability": "nonpayable",
      "type": "constructor",
      "signature": "constructor"
    },
    {
      "constant": false,
      "inputs": [
        {
          "name": "jewel_count",
          "type": "uint256"
        },
        {
          "name": "toPalyer",
          "type": "address"
        }
      ],
      "name": "updateJewel",
      "outputs": [],
      "payable": false,
      "stateMutability": "nonpayable",
      "type": "function",
      "signature": "0xcb404a0e"
    },
    {
      "constant": true,
      "inputs": [
        {
          "name": "player",
          "type": "address"
        }
      ],
      "name": "getJewel",
      "outputs": [
        {
          "name": "",
          "type": "uint256"
        }
      ],
      "payable": false,
      "stateMutability": "view",
      "type": "function",
      "signature": "0xd81ee4b6"
    },
    {
      "constant": true,
      "inputs": [],
      "name": "getTest",
      "outputs": [
        {
          "name": "",
          "type": "uint256"
        }
      ],
      "payable": false,
      "stateMutability": "view",
      "type": "function",
      "signature": "0xa8cd0a80"
    },
    {
      "constant": true,
      "inputs": [],
      "name": "getCoinbase",
      "outputs": [
        {
          "name": "",
          "type": "address"
        }
      ],
      "payable": false,
      "stateMutability": "view",
      "type": "function",
      "signature": "0xd1a82a9d"
    }
  ],
  "bytecode": "0x608060405234801561001057600080fd5b5033600360006101000a81548173ffffffffffffffffffffffffffffffffffffffff021916908373ffffffffffffffffffffffffffffffffffffffff1602179055506103fa806100616000396000f3fe60806040526004361061006d576000357c0100000000000000000000000000000000000000000000000000000000900463ffffffff168063a8cd0a8014610072578063cb404a0e1461009d578063d1a82a9d146100f8578063d81ee4b61461014f578063f71d96cb146101b4575b600080fd5b34801561007e57600080fd5b5061008761022f565b6040518082815260200191505060405180910390f35b3480156100a957600080fd5b506100f6600480360360408110156100c057600080fd5b8101908080359060200190929190803573ffffffffffffffffffffffffffffffffffffffff169060200190929190505050610238565b005b34801561010457600080fd5b5061010d61031d565b604051808273ffffffffffffffffffffffffffffffffffffffff1673ffffffffffffffffffffffffffffffffffffffff16815260200191505060405180910390f35b34801561015b57600080fd5b5061019e6004803603602081101561017257600080fd5b81019080803573ffffffffffffffffffffffffffffffffffffffff169060200190929190505050610347565b6040518082815260200191505060405180910390f35b3480156101c057600080fd5b506101ed600480360360208110156101d757600080fd5b8101908080359060200190929190505050610390565b604051808273ffffffffffffffffffffffffffffffffffffffff1673ffffffffffffffffffffffffffffffffffffffff16815260200191505060405180910390f35b60006014905090565b600360009054906101000a900473ffffffffffffffffffffffffffffffffffffffff1673ffffffffffffffffffffffffffffffffffffffff163373ffffffffffffffffffffffffffffffffffffffff1614151561029457600080fd5b81600260008373ffffffffffffffffffffffffffffffffffffffff1673ffffffffffffffffffffffffffffffffffffffff1681526020019081526020016000205401600260008373ffffffffffffffffffffffffffffffffffffffff1673ffffffffffffffffffffffffffffffffffffffff168152602001908152602001600020819055505050565b6000600360009054906101000a900473ffffffffffffffffffffffffffffffffffffffff16905090565b6000600260008373ffffffffffffffffffffffffffffffffffffffff1673ffffffffffffffffffffffffffffffffffffffff168152602001908152602001600020549050919050565b60018181548110151561039f57fe5b906000526020600020016000915054906101000a900473ffffffffffffffffffffffffffffffffffffffff168156fea165627a7a72305820eb4d881524f3f8ec6a1621ffd72ba592ce728df35cbc7235998c16b165294f540029",
  "source": "pragma solidity >=0.4.22<0.6.0;\r\n\r\ncontract Fish {\r\n    uint256 jewel;\r\n    address [] public players;\r\n    mapping(address => uint256) players_jewel;\r\n    address coinbase;\r\n    constructor()public{\r\n        coinbase = msg.sender;\r\n    }\r\n    function updateJewel(uint256 jewel_count, address toPalyer) public {\r\n        require(msg.sender == coinbase);\r\n        players_jewel[toPalyer] = players_jewel[toPalyer] + jewel_count;\r\n    }\r\n\r\n    function getJewel(address player) public view returns (uint256){\r\n        return players_jewel[player];\r\n    }\r\n\r\n    function getTest() public view returns (uint256){\r\n        return 20;\r\n    }\r\n    function getCoinbase() public view returns (address){\r\n        return coinbase;\r\n    }\r\n\r\n}\r\n",
  "sourcePath": "D:/test/contracts/Fish.sol",
  "compiler": {
    "name": "solc",
    "version": "0.5.0+commit.1d4f565a.Emscripten.clang"
  },
  "schemaVersion": "3.0.2",
  "updatedAt": "2019-04-02T09:10:30.728Z",
  "devdoc": {
    "methods": {}
  },
  "userdoc": {
    "methods": {}
  }
}